:100000006F00002073110134630C011A2338A1041E
:10001000233CB104F325203463D2050893951500E1
:100020001305E0006312B502130500087330453074
:10003000130500027320453403350105833581051E
:100040007311013473002030130560006316B51876
:1000500003350120232005000F00F00F0325812028
:1000600023240120937515006384050073604134D7
:1000700093752500638405000F10000093754500FB
:100080006384050073000012937585006386050084
:10009000730050106FF05FFF6FF01FFA23341100F0
:1000A000233C3100233041022334510297B2000037
:1000B0002338610213933500233C710233836200BD
:1000C00023308104033343F52334910413050100E5
:1000D0002330C106732610342334D106F3120034C2
:1000E0002338E106233CF1062330010923341109AA
:1000F00023382109233C31092330410B2334510B90
:100100002338610B233C710B2330810D2334910D77
:100110002338A10D233CB10D2330C10F2334D10F5F
:100120002338E10F233CF10F233851000322010053
:1001300023300100E7000300232041007310013445
:1001400083308100833181010332010283328102D5
:1001500003330103833381030334010483348104B3
:100160000335010583358105033601068336810693
:100170000337010783378107033801088338810873
:100180000339010983398109033A010A833A810A53
:10019000033B010B833B810B033C010C833C810C33
:1001A000033D010D833D810D033E010E833E810E13
:1001B000033F010F833F810F0331010173002030A2
:1001C00073210034130101F02338A104233CB1044E
:1001D0009305D0006FF09FEC930500006FF01FECCB
:1001E000B712000033015100B30250403371510087
:1001F000130101DC6FF09FF4EF20C0676FF05FF434
:10020000930000001301000093010000130200009E
:100210009302000013030000930300001304000086
:10022000930400001306000093060000130700006B
:100230009307000013080000930800001309000052
:1002400093090000130A0000930A0000130B00003A
:10025000930B0000130C0000930C0000130D000022
:10026000930D0000130E0000930E0000130F00000A
:10027000930F000073100034970200009382C2D8DD
:1002800073905230732350306390620017D1000096
:10029000130141B3F32640F11396C6003301C100A8
:1002A000639406006F2050291306800073104630B7
:1002B000730050106FF0DFFF97D70000938707D5CA
:1002C00003B507000F00F00FE30C05FEF32540F126
:1002D00097D7000083B707D3130710003B17B70069
:1002E0003377F700630807007300501033400002B3
:1002F0006FF09FFF130101FE233C11009306F0FFF6
:100300009307070093080700130807001306070068
:10031000170300001303C302731353307390063B9B
:10032000F327003B7390163BF328103B7390263B5A
:100330007328203B7390363B7326303B7310533049
:10034000B3F71701B3F70701B3F7C70063840706D4
:1003500097070000938707CB17E60000130686CAAD
:1003600037181F0093D7270013562600130808805C
:100370007390073B7310163B7390263B7310373B0B
:100380007310083A97D7000083B7C7C9638E070078
:10039000370720001307F7FFB387E7003706E0FFB2
:1003A00033F6C700EF209035970720009387C7DF0B
:1003B0006FF01FFE2334B1002330A100EF20D031B5
:1003C00003350100833581006FF0DFFB130101FE6F
:1003D0002338810017D400000334C4C423349100AF
:1003E000233C11009304050063080408B7072000AC
:1003F0009387F7FF3304F40013850400B707E0FF89
:100400003374F400EF10D01D1316050213560602C4
:100410009385040013050400EF8040711305040068
:1004200097D50000938505BEEF1090781305040062
:10043000EF109066130504009795000093858512D0
:10044000EF10906A1305040097950000938505133B
:10045000EF109069EF00C0030F00F00F97D7000076
:1004600083B7C7BC638007021305000017D70000DD
:10047000233EF7B8EFF05FE4170420001304C4D262
:100480006FF0DFF6970720009387C7B76FF0DFFDA7
:1004900017950000130585876F20C00E83B70500F0
:1004A000638C070083B70501638407006780000041
:1004B00023BC0500678000009307F0FF23A4F5002C
:1004C0006FF05FFE83B70500638AA70083B705015D
:1004D000638CA700130500006780000083B7050147
:1004E00023B00500E398A7FE23B80500130500001C
:1004F0006780000023A0050023B4050023B8050091
:1005000023A005026780000023A0050023B4050096
:1005100023B805006780000083A7050063880706ED
:1005200083A785011307100023AEE5001BD6F74112
:100530001B56E6013B06F6001376C6FF83B605019F
:100540006356C004370501FFB705FF003386C600B8
:10055000130505F09385F50F37080B009308F0FF9E
:1005600083A746001B9787009BD787003377A70098
:10057000B3F7B700B367F7006394070123A216012E
:1005800093868600B307D640E34CF0FC67800000FA
:1005900083A785009B87170023A4F50067800000D0
:1005A00083A7850003A7C500130500009B86F7FFFE
:1005B00023A4D5006304F700678000009307703E12
:1005C00023A6F5001305F0FF6780000083B7050040
:1005D0006394A7006396070013050000678000007E
:1005E00023B0050013050000678000009307F0FFAB
:1005F0009397070223B4050023B8050023B0F50044
:100600006780000083A70500638A071203B3850093
:10061000130101FF23341100630A031483B605019B
:100620006380061203A785019377F700639A07108A
:1006300083A7C501639207161B55F741B7C7000092
:100640001B55E501938787FF3B05E500B307F300E2
:10065000130710001375C5FF17D600002334F69E4C
:1006600023AEE500635EA008B71E000017DE0000A1
:10067000032ECE9AB30ED101B7F7FFFF374F00001C
:10068000B70801FF3708FF00B3FEFE003385A60060
:10069000938808F01308F80F330FE30113060000E6
:1006A00003A706009B1787001B57870033770701B6
:1006B000B3F71701B3E7E7001BD707019B970701C3
:1006C000BB87E7006396C703F32740F1B307F04009
:1006D0009397C700938707FC1B171600B387FE008C
:1006E000B30F66003307E70123B0F70123B8E70033
:1006F00093860601B307D5401B064600E342F0FA95
:1007000083A5050263980500833081001301010170
:100710006780000013970502B787000083308100CF
:1007200013570702B307F30023B0E7001795000043
:100730001305C5F0130101016F10107E67800000E2
:1007400017950000130585E997960000938606EB40
:100750001306801597950000938545E4EF10D07B34
:10076000370501001305F5FFEF200009179500007C
:100770001305C5E697960000938646E113067015AB
:1007800097950000938585E1EF10107937050100FA
:100790001305F5FFEF20400617950000130505E44B
:1007A00097960000938686E81306901597950000AB
:1007B0009385C5DEEF105076370501001305F5FF70
:1007C000EF20800383A70500638E071C03B6850016
:1007D000130101FC233C1102138F0500630C061E5C
:1007E00083B605016382061C83A7850113F7770092
:1007F000631C071A03A705029305F03F63E8E5228F
:100800008325CF01639E051E1BD3F7411B53E301D4
:100810003B03F3009307100097D5000023B0C58277
:100820001373C3FF17D600002336E680232EFF0084
:10083000635E6006B71F0000B30FF101B7F7FFFF5B
:10084000B70E01FF370EFF00B3FFFF0033836600D2
:10085000938E0EF0130EFE0F930800001308000095
:10086000B7020B0003A7060017C600000326067B8D
:100870009B1787001B5787003377C701B3F7D70152
:10088000B3E7E7001BD707019B970701BB87E7008A
:100890006384C7029386860037170000B307D340EE
:1008A0001B080808BB88E800E34EF0FA8330810398
:1008B000130101046780000003A64600F32740F1FE
:1008C000B307F0401B1786001B5686003377D7010D
:1008D0003376C6019397C700938707FC3367C70039
:1008E000B387FF00630A570237060900631AC7047B
:1008F00003378F0037260000B70520003306C700F6
:100900003307B700330606013307170123B8C702C0
:1009100023B4E7026FF01FF803378F00372600007B
:10092000B70520003306C7003307B70033060601BA
:100930003307170123B0C70223BCE7006FF09FF510
:100940001B5607011B1707013B06C7009305000054
:1009500017950000130505D62334E1032330F10376
:10096000233C1101233801012334D10023306100DD
:10097000EF10905A370EFF00B70E01FF033F8102C0
:10098000833F0102833881010338010183368100EE
:1009900003330100B7020B00130EFE0F938E0EF00F
:1009A0006FF05FEF6780000017950000130505C327
:1009B00097960000938686CA1306301B9795000011
:1009C0009385C5BDEF105055370501001305F5FFA0
:1009D000EF10906217950000130545C09796000030
:1009E0009386C6BA1306201B97950000938505BB16
:1009F000EF109052370501001305F5FFEF10D05F9F
:100A000017950000130585BD97960000938606C2D2
:100A10001306501B97950000938545B8EF10D04FF3
:100A2000370501001305F5FFEF10105D1795000065
:100A30001305C5BA97960000938646C51306401B5A
:100A400097950000938585B5EF10104D370501008F
:100A50001305F5FFEF10505A130101FE23349100E6
:100A600083348500233881002330210113040500DD
:100A7000138905001385040097950000938585C6AA
:100A8000233C1100EF80801B631C05020335040129
:100A900097950000938505C6EF80401A6312050202
:100AA000930710002320F9008330810103340101F2
:100AB00083348100033901001301010267800000C3
:100AC0001385040097950000938545C3EF800017B8
:100AD000E31C05FC03370401832784018330810173
:100AE000033401012334E9002328F9008334810011
:100AF000033901001301010267800000130101FEA8
:100B00002338810013040500033585002334910048
:100B100093840500979500009385C5BE233C110082
:100B2000EF80C0116314050023B08400833081017D
:100B30000334010183348100130101026780000046
:100B400093071000130101F5939707022330810AE0
:100B5000233C910893872700370401FFB704FF0067
:100B6000233821092334310923304109233C51071B
:100B7000233861072334710723308107233C910513
:100B80002334110A130906002334F102930B0500E4
:100B9000233CC1002338C102938C0500138B06004F
:100BA0009384F40F130404F0130C0000B70903003E
:100BB000130A3000B70A010003A70B009B578700F8
:100BC0001B178700B3F7970033778700B3E7E70079
:100BD000638E37099BD607011B9707013B07D70098
:100BE0006362EA066386571F370702006390E71CBB
:100BF000631E0C00630C090083370B016388070038
:100C000083350B0213050900E780070013854B00AD
:100C10008330810A0334010A8334810903390109CD
:100C200083398108033A0108833A8107033B0107AE
:100C3000833B8106033C0106833C81051301010BC4
:100C400067800000370704006392E71603A74B0094
:100C5000938B4B009B5787001B178700B3F79700B8
:100C600033778700B3E7E700E39637F7631E0C207E
:100C700003A78B0083A64B001386CB009B1787002E
:100C80001B57870033779700B3F78700B3E7E70078
:100C90001BD707019B970701BB87E7001B978600BF
:100CA0009BD68600B3F69600337787003367D7006C
:100CB000939707029B56070193D707021B1707015B
:100CC000B387FC003B07D700233CF1022324E10457
:100CD0002330C1046302090A1385070097950000B9
:100CE000938545A32334E1002330F100EF701075A4
:100CF00083370100033781006316050203A6CB008A
:100D00009B1686001B56860033769600B3F6860047
:100D1000B3E6C6001BD606019B960601BB86C6003D
:100D20002328D90013850700979500009385859F98
:100D30002330E100EF70907003370100631E05025D
:100D400083A6CB00370601FF130606F09B978600AB
:100D5000B3F7C7003706FF009BD686001306F60FD1
:100D6000B3F6C600B3E7D7009BD607019B970701F0
:100D7000BB87D700232AF9001B0737009B57F74191
:100D80009BD7E701BB87E70083350B0203378B0056
:100D90009BD727409B8737009397270013050103B4
:100DA000B38BFB00E70007006FF01FE1631E0C0030
:100DB000630C090083370B016388070083350B023E
:100DC00013050900E780070013850B006FF05FE44F
:100DD000631E0C00630C090083370B016388070056
:100DE00083350B0213050900E780070083370B00EA
:100DF000138C4B002330810313050C00638A07001A
:100E000083350B0213058101E780070003350102DA
:100E1000EF7050601375C5FF130585003385AB0077
:100E200093060B001306810193850C00EFF05FD150
:100E300003378B01930705006300070283350B021C
:100E40002330A10013058101E70007001307F0FF1D
:100E5000833701006308E500938B0700130C100033
:100E60006FF09FD5E38AFBFE370700046F00800018
:100E7000130C4C00232EECFE930B0C00E39A87FF1F
:100E8000130C10006FF05FD3178500001305057574
:100E90009796000093868687130650039785000077
:100EA0009385C56FEF105007370501001305F5FF57
:100EB000EF109014138505001306800193050000C0
:100EC0006F70904F83B70500130101FF23341100A9
:100ED0006386A70603B705016314A700639807009C
:100EE00083308100130101016780000083A7C501E1
:100EF0006380070883A68501130710006392E60844
:100F000003A58500E34EA0FC97C6000083B68610BB
:100F10001316250017C70000130747108330810000
:100F20003307C70093E6160017C600002334D60E19
:100F30002320F700130101016F10D05B03A7850088
:100F4000978600009386067F13061010E35407F877
:100F50001785000013058568978500009385056453
:100F6000EF10807B370501001305F5FFEF10D00867
:100F7000978600009386067D130650106FF05FFD84
:100F8000978600009386867D130660106FF05FFCE5
:100F900083A7050063800712130101FE233491002B
:100FA00083B4850023388100233C110023302101C4
:100FB000138405006382041083A7450063C40712ED
:100FC00083B7050113890700638C07049785000028
:100FD0009385C57C13850400EF70504663120504A9
:100FE000978500009385057C13050900EF70104577
:100FF0006306050A978500009385C57B13050900E4
:10100000EF70D043630C05089385040013060900B4
:10101000178500001305057BEF10007083348400F2
:10102000178600000346B67E9786000083C6467E7C
:10103000178700000347D77D9787000083C7677D28
:10104000178800000348887C178500000345157C3D
:101050009785000083C5A57BA382E400238004015B
:10106000A380A4002381B400A381C4002382D40000
:101070002383F40083378400833684013707000715
:1010800023ACE7FE0326440083B7060013071000D5
:101090003B17C700B3E7E70023B0F60083308101B8
:1010A000033401018334810003390100130101027B
:1010B0006780000067800000178500001305055257
:1010C000978600009386066B1306902A978500008A
:1010D0009385C54CEF104064370501001305F5FFFB
:1010E000EF108071178500001305454F97860000AB
:1010F000938646691306A02A978500009385054AC2
:10110000EF108061370501001305F5FFEF10C06E89
:1011100083A705006382071A83B28500130101FECD
:10112000233C11006380021E03A70501937737005B
:10113000639A071C9B57F7419BD7E701BB87E700E2
:1011400093F7C7FFB388F2006358F01283370500A6
:10115000370601FFB706FF0003AE070103A84701EA
:10116000233881001B05FEFF1B03F8FF1315050242
:10117000931703021355050213D3E7011315250036
:10118000931708022334910023302101130606F03F
:101190001305450013DFE7019386F60F970500005E
:1011A000938545F7930F00006354C00F3384A2006A
:1011B0009303000003A7020093824200939303026B
:1011C0009B1787001B5787003377D700B3F7C700FB
:1011D000B3E7E7001BD707019B970701BB87E70031
:1011E0009397070293D70702B3837700E39482FCB7
:1011F0006356000B3389E2019384020093070000D9
:1012000003A7040013940702938444009B178700EC
:101210001B5787003377D700B3F7C700B3E7E70062
:101220001BD707019B970701BB87E700939707022E
:1012300093D70702B3878700E39424FD938242008B
:10124000B302530063EA7500B383F30063E6B300AF
:10125000938E0700930F1000B3875840E346F0F4D5
:10126000638E0F04033401018334810003390100CC
:1012700097C7000023BCD7DD639A580483308101EF
:101280001301010267800000B3875840E35AF0FC65
:10129000E35C00FF930300006FF0DFF563FA750075
:1012A000B3875840E344F0F0E39E0FFA6F0000016B
:1012B000930700006FF05FF96780000003340101BD
:1012C00083348100033901006FF01FFB1785000094
:1012D0001305C530978600009386C6561306C00BCB
:1012E000978500009385852B233881002334910056
:1012F00023302101EF104042370501001305F5FFAF
:10130000EF10804F178500001305452D97860000CC
:10131000938646501306400B978500009385052859
:10132000233881002334910023302101EF10C03E87
:10133000370501001305F5FFEF10004C130101FD07
:101340002330810213040500033585002334310165
:1013500093890500978500009385C54F23341102BA
:10136000EF70D00D63140506233C910083248401A3
:1013700063589006033404012338210103B909009E
:10138000B30494006F008001EF70D00813051500BE
:101390003304A400B38784406356F0029305090028
:1013A00013050400EF70900993070500130504006E
:1013B000E39C07FC83A7890003A7C90063D4E70067
:1013C00023A6F900833481010339010183308102AE
:1013D0000334010283398100130101036780000097
:1013E000833481016FF09FFE130101FE23388100D9
:1013F0000334850023349100233021019304050038
:101400001389050013050400978500009385852D39
:10141000233C1100EF709002631C050003B504012A
:101420009785000093850544EF705001630005081F
:10143000978500009385852C13050400EF7010003C
:10144000630605089785000093854533130504005E
:10145000EF70C07E6312050283B704012334F900E4
:101460008330810103340101833481000339010099
:101470001301010267800000130504009785000036
:101480009385C53EEF70807BE31C05FC83B70401A8
:1014900083308101033401012338F9008334810052
:1014A00003390100130101026780000083308101CC
:1014B00003340101930710002320F90083348100D5
:1014C00003390100130101026780000083B70400A3
:1014D00083B7070003A60701635EC00483B6040157
:1014E0009317060213D6E701370801FFB705FF007F
:1014F0003386C600130808F09385F50F03A706008E
:1015000093864600131505029B1787001B5787001B
:101510003377B700B3F70701B3E7E7001BD707013D
:101520009B970701BB87E7003385A700E398C6FCBC
:101530001B05050083308101033401012322A9002A
:101540008334810003390100130101026780000028
:1015500083B705006388071683378500130101FDF3
:1015600023308102233C910013040500938405007D
:1015700013850700978500009385453023341102B9
:101580002334F100EF70806B6306050203358100A0
:101590009785000093850530EF70406A6300050A67
:1015A000833081020334010283348101130101037A
:1015B000678000008337040083B7070083A5070115
:1015C0006354B010033604019397050293D5E701E5
:1015D000370801FF3705FF00B305B600130808F010
:1015E0001305F50F930700000327060093960702E3
:1015F000130646009B1787001B5787003377A70009
:10160000B3F70701B3E7E7001BD707019B97070173
:10161000BB87E7009397070293D70702B387D700EA
:10162000E314B6FC23B4F4008330810203340102D6
:1016300083348101130101036780000083370400B4
:1016400083B7070083A507016356B008033604017A
:101650009397050293D5E701370801FF3705FF008F
:10166000B305B600130808F01305F50F9307000043
:101670000327060093960702130646009B17870070
:101680001B5787003377A700B3F70701B3E7E700DD
:101690001BD707019B970701BB87E70093970702BA
:1016A00093D70702B387D700E314B6FC23B8F4003E
:1016B0008330810203340102833481011301010369
:1016C00067800000678000009307000023B4F400E7
:1016D0006FF09FF59307000023B8F4006FF05FFDF3
:1016E000130101FD23304101033A8500233C9100A1
:1016F0002334310193840500930905009785000088
:101700009385451513050A0023341102EF70005329
:10171000631005082338210103A98901635E201B9A
:101720002330810203B40901330924016F008001D1
:10173000EF70404E130515003304A400B307894031
:101740006354F00497850000938545161305040043
:10175000EF70C04E9307050013050400E39A07FCE1
:1017600003340102833081029307100023A0F400A8
:10177000033901018334810183398100033A010077
:1017800013010103678000000334010203390101E2
:1017900097850000938585F613050A00EF70004ACF
:1017A00063000504978500009385451113050A0021
:1017B000EF70C048631E050A03B7090183A78901BA
:1017C00023B8E40023ACF400833081028334810128
:1017D00083398100033A010013010103678000008F
:1017E00083B7090083B6090183B7070023B4040057
:1017F00083A50701E35AB0FC9397050293D5E7014F
:10180000370801FF3705FF00B385B600130808F05D
:101810001305F50F9307000003A7060013960702B0
:10182000938646009B1787001B5787003377A700D6
:10183000B3F70701B3E7E7001BD707019B97070141
:10184000BB87E7009397070293D70702B387C700C8
:10185000E394B6FC8330810223B4F4008339810021
:1018600083348101033A0100130101036780000002
:1018700013050A00978500009385C505EF70003CAD
:10188000E31405F483B70901370601FFB706FF002B
:1018900003A70700130606F09386F60F9B17870031
:1018A0001B5787003377D700B3F7C700B3E7E700CC
:1018B000833081021BD707019B970701BB87E70095
:1018C00023A0F4028339810083348101033A0100AB
:1018D0001301010367800000033901016FF05FEB22
:1018E000130101FD23304101033A8500233C91009F
:1018F0002334310193840500930905009785000086
:10190000938545F513050A0023341102EF70003367
:10191000631005082338210103A989016352201DA2
:101920002330810203B40901330924016F008001CF
:10193000EF70402E130515003304A400B30789404F
:101940006354F004978500009385C5C11305040016
:10195000EF70C02E9307050013050400E39A07FCFF
:1019600003340102833081029307100023A0F400A6
:10197000033901018334810183398100033A010075
:1019800013010103678000000334010203390101E0
:1019900097850000938585D613050A00EF70002A0D
:1019A0006300050497850000938545F113050A003F
:1019B000EF70C028631E050A03B7090183A78901D8
:1019C00023B8E40023ACF400833081028334810126
:1019D00083398100033A010013010103678000008D
:1019E00083B7090083B6090183B7070023B4040055
:1019F00083A50701E35AB0FC9397050293D5E7014D
:101A0000370801FF3705FF00B385B600130808F05B
:101A10001305F50F9307000003A7060013960702AE
:101A2000938646009B1787001B5787003377A700D4
:101A3000B3F70701B3E7E7001BD707019B9707013F
:101A4000BB87E7009397070293D70702B387C700C6
:101A5000E394B6FC8330810223B4F400833981001F
:101A600083348101033A0100130101036780000000
:101A700013050A00978500009385C5E6EF70001CEA
:101A8000E31405F483B70901370601FFB706FF0029
:101A900003A70700130606F09386F60F9B1787002F
:101AA0001B5787003377D700B3F7C700B3E7E700CA
:101AB0001BD707019B970701BB85E7008330810295
:101AC00083398100033A010023A0B40283348101E9
:101AD00017850000130585E2130101036F00D04351
:101AE000033901016FF0DFEA130101FE2334910095
:101AF000833485002338810023302101130405003D
:101B0000138905001385040097850000938585BD22
:101B1000233C1100EF7080126316050403350401A5
:101B200097850000938505D4EF704011631C050272
:101B30008337090097860000938646DD1306C00EA2
:101B40006398071A8337040083308101033401014D
:101B50002330F900833481000339010013010102AD
:101B60006780000097850000938545DB138504009E
:101B7000EF70C00C631605028337090163940716E2
:101B8000833704002338F9008330810103340101D5
:101B900083348100033901001301010267800000D2
:101BA00097850000938585DA13850400EF7000099E
:101BB000630C0504978500009385C5DA138504003E
:101BC000EF70C007631C050883370401370601FF67
:101BD000B706FF0003A70700130606F09386F60F6B
:101BE0009B1787001B5787003377D700B3F7C700D1
:101BF000B3E7E7001BD707019B970701BB87E70007
:101C0000232EF9006FF05FF883370401370601FFD8
:101C1000B706FF0003A70700130606F09386F60F2A
:101C20009B1787001B5787003377D700B3F7C70090
:101C3000B3E7E70083308101033401011BD70701BB
:101C40009B970701BB87E700232CF90083348100B1
:101C500003390100130101026780000013850400AD
:101C600097850000938585A9EF60507DE31E05F000
:101C70008337040083B7070083A507016350B006CC
:101C8000033604019397050293D5E701370801FF56
:101C90003705FF00B305B600130808F01305F50F6C
:101CA00093070000032706009396070213064600D9
:101CB0009B1787001B5787003377A700B3F70701EF
:101CC000B3E7E7001BD707019B970701BB87E70036
:101CD000B387D700E318B6FC1B8507002324A900AF
:101CE0006FF09FEA978600009386C6C41306F00E35
:101CF000178500001305858E978500009385058A5A
:101D0000EF009021370501001305F5FFEF00D02EFD
:101D1000832705003706FF00370801FF1BD7870020
:101D20001306F60F9B978700130808F03377C70058
:101D3000B3F70701B367F70037D7EDFE1307D700F6
:101D40006398E70203278501930610019B1787001C
:101D50001B5787003377C700B3F70701B3E7E700E6
:101D60001BD707019B970701BB87E70063F4F600C9
:101D7000678000008327C5008328850093860500BF
:101D80001B9787009BD587009B9788009BD888006E
:101D9000B3F5C500B3F8C80033770701B3F70701FF
:101DA0003367B700B3E717011B5607019B150701FF
:101DB0001BD707019B970701BB85C500BB87E700C1
:101DC000939505029397070293D5050293D70702CF
:101DD000B385A500130600003385A7006FE05FD62A
:101DE00083270500370601FFB706FF001B97870012
:101DF000130606F09BD787009386F60F3377C7004C
:101E0000B3F7D700B367F70037D7EDFE1307D70056
:101E100013080500639EE70403278501930510015D
:101E2000130500009B1787001B5787003377D700E7
:101E3000B3F7C700B3E7E7001BD707019B9707017C
:101E4000BB87E70063E8F502832748001B958700FE
:101E50009BD78700B3F7D7003375C5003365F5000E
:101E60009B5705011B1505013B05F5006780000028
:101E70001305000067800000832805012330060059
:101E8000635210091B87F8FF9397080293D8E70164
:101E900013150702370E01FF3703FF001355050224
:101EA000B3881501130E0EF01303F30F138805000A
:101EB00093070000032708009396070213084800C1
:101EC0009B1787001B57870033776700B3F7C7015D
:101ED000B3E7E7001BD707019B970701BB87E70024
:101EE0009397070293D70702B387D700E31418FD2F
:101EF00013172500938545003305B7002330F600FE
:101F00006780000013850500678000008328450175
:101F100023300600635210091B87F8FF93970802CD
:101F200093D8E70113150702370E01FF3703FF00AF
:101F300013550502B3881501130E0EF01303F30FAA
:101F400013880500930700000327080093960702F3
:101F5000130848009B1787001B57870033776700DB
:101F6000B3F7C701B3E7E7001BD707019B9707014A
:101F7000BB87E7009397070293D70702B387D70081
:101F8000E31418FD13172500938545003305B700AA
:101F90002330F6006780000013850500678000008D
:101FA00083370501139705029355E701B387B700FF
:101FB00003A70700370601FFB706FF009B1787003E
:101FC000130606F09386F60F1B578700B3F7C7007A
:101FD0003377D700B3E7E7001BD507019B970701CD
:101FE0003B05F50067800000130101FD2338210146
:101FF0000329850123341102233C9100635A2009EF
:10200000233081020334050123343101930400009D
:1020100093890500330924016F00C001EF60903FF0
:10202000130515003304A400B30789409B841400F2
:10203000635EF0029385090013050400EF60104011
:102040009307050013050400E39A07FC033401021B
:102050008339810083308102033901011385040033
:1020600083348101130101036780000003340102FE
:10207000833081029304F0FF833981000339010129
:10208000138504008334810113010103678000007C
:102090009304F0FF6FF01FFC130101FB17F6FFFF25
:1020A000130686E197F6FFFF9386469B17F7FFFF1F
:1020B00013074706930581012334110423380102D5
:1020C00017B80000233408F8233CC1002330D102A4
:1020D0002334E102233C2102EFF09FC397B70000B5
:1020E00083B7C7F6638807008330810413010105B5
:1020F00067800000177500001305454E97860000A5
:102100009386C6861306C00C977500009385054913
:10211000EF008060370501001305F5FFEF00C06D8B
:10212000130101FA9307810017E8FFFF13084837EE
:10213000170600001306869B97F6FFFF9386C6D806
:1021400017E7FFFF1307473893058102233C11046B
:102150002334010023380100233C01002330010215
:102160002334F104233401032338C102233CD10278
:102170002330E104EFF0DFB9732740F197B7000097
:1021800083B747E9B3D7E700638807008330810549
:102190001301010667800000177500001305054450
:1021A000977600009386867D13068012977500004F
:1021B0009385C53EEF004056370501001305F5FF36
:1021C000EF008063130101FA9307810217E6FFFF16
:1021D0001306863297F6FFFF9386C67017E7FFFF58
:1021E00013078742930501002330F102233C1104B9
:1021F000233C0100232201042330C1002334D100F9
:102200002338E100EFF0DFB0832741046388070043
:1022100083308105130101066780000017750000F7
:102220001305C53B977600009386C6771306001802
:102230009775000093858536EF00004E3705010045
:102240001305F5FFEF00405B130101FA93078102CC
:1022500017E6FFFF1306862B97F6FFFF9386864847
:1022600017E7FFFF1307475693050100233C1104AE
:10227000233C0100232201042330C1002334D10078
:102280002338E1002330F102EFF09FA8833081056D
:102290001301010667800000130101FA9307810210
:1022A00017E6FFFF1306862697F6FFFF9386864301
:1022B00017E7FFFF1307872693050100233C11044E
:1022C000233C0100232201042330C1002334D10028
:1022D0002338E1002330F102EFF09FA38330810522
:1022E0001301010667800000130101FB9307703E94
:1022F000130781002334B1009397070217E8FFFF0B
:102300001308482917F6FFFF1306860397E6FFFF19
:102310009386462993058101233411042334010255
:102320002338F100233C01012330C1022338D102BC
:10233000233CE102EFF0DF9D8330810413010105AE
:1023400067800000130101FB97E6FFFF9386462894
:1023500017F7FFFF1307072017E6FFFF1306467A5C
:1023600093058101233411042338D1022330E10283
:102370002334010223300100233CC1002334010037
:1023800023380100233C2102EFF09F98033781009E
:10239000833701018330810497B6000023B8E6C873
:1023A00017B700002330F7C813010105678000004C
:1023B000130101FA233C110423B005001307810027
:1023C0002330B10217E8FFFF1308882217F6FFFF3A
:1023D0001306C60197F6FFFF9386C6BB93058102DD
:1023E00023300104233401032338C102233CD102EA
:1023F0002334E104EFF0DF918330810513010106FE
:102400006780000097B8000083B8C8C01383050038
:10241000630E050073261034B7050200F3A60530DD
:102420008337050073900630B3F8F800138708006F
:102430009306000017B800001308C8BC6382081494
:10244000130101FF371500003305A100B7F7FFFFA7
:102450003375F500130E100093771700639A070089
:10246000135717009377170093861600E38A07FE29
:1024700003360800F32740F1B387F6409397C7006F
:102480003356D640938507FC13761600B305B50086
:102490006318060203A685001B0606002326C1005A
:1024A0000326C1003366C30023A4C5000326C10070
:1024B0000F00F00FB387A70083B707FC23A0C70165
:1024C0001357170063060700938616006FF0DFF8B6
:1024D000930710006302F30A37130000330361000F
:1024E000B7F7FFFF3373F3009306000093F718006C
:1024F000639A070093D8180093F718001307170082
:10250000E38A07FE732840F1330807411318C80017
:1025100033080301833708FC83A70700638607029B
:10252000033603FC83270600033508FC9B8707005E
:102530002324F10023200600832581008327050042
:10254000B3E6D500E39007FE93D818006386080031
:10255000130717006FF09FF963800602B71700009A
:10256000B307F10037F7FFFFB3F7E70083B707FCC6
:1025700023A0D7000F00F00F1301010167800000B6
:1025800067800000130101FD233081022334110212
:10259000130405000345050063020506233C910072
:1025A000233821012334310197B40000938404AC13
:1025B00017B90000130909AC97B90000938909AC59
:1025C0006F000001EF001063034504006302050281
:1025D00083B7040013041400E39607FE8337090051
:1025E00063860702EF00507903450400E31205FEFD
:1025F00083348101033901018339810083308102F1
:1026000003340102130101036780000083B709004E
:1026100063860700EF10400F6FF01FFB97B70000B5
:1026200083B7C7A663860700EF1000456FF0DFF998
:1026300097B7000083B787A2E38807F8EF00D03C84
:102640006FF09FF8130101ED130605009386050056
:10265000130501009305001023341112EF60C00729
:10266000034501006308050623308112233C9110C5
:1026700023382111233431111304010097B40000D1
:102680009384C49E17B900001309C99E97B900002E
:102690009389C99E6F000001EF00D05503450400E7
:1026A0006302050283B7040013041400E39607FED7
:1026B0008337090063860702EF00106C03450400AE
:1026C000E31205FE03340112833481110339011131
:1026D0008339811083308112130101136780000058
:1026E00083B7090063860700EF1000026FF01FFB3D
:1026F00097B7000083B7879963860700EF10C0374C
:102700006FF0DFF997B7000083B74795E38807F8C4
:10271000EF00902F6FF09FF8130101FA130381026D
:102720002334B10293050300233C11002338C10276
:10273000233CD1022330E1042334F1042338010582
:10274000233C110523346100EFF0DFEF833081017A
:1027500013010106678000007310361473101514FE
:10276000F327203473902714F327501073901734F5
:102770009397450013D735001377071093F7070297
:10278000B3E7E70093F5D5ED37170000B3E7B700DF
:1027900013070780B3E7E7007390073017E3FFFFE5
:1027A000670043A473270030F32730347390371445
:1027B00073101614F327203473902714F327501046
:1027C00073901734931747009356370093F606100B
:1027D00093F70702B3E7D7001377D7EDB7160000DA
:1027E000B3E7E70013870680B3E7E700739007308D
:1027F00017E3FFFF6700039F130101FF23308100F0
:1028000013040500177500001305C51A23341100C1
:10281000EFF09FF013050400EF10C04097B70000E1
:1028200083B7C78363840700EF0090269305800079
:1028300013050000EFF01FBD730050106FF0DFFFB5
:10284000130101FF2334110013070600F32620347F
:10285000177500001305051B13067001977500001E
:1028600093854516EFF05FEB370501001305F5FF83
:10287000EFF09FF8130101FF233411007327203478
:102880009307F00063E0E70CB7A700009387270ADF
:10289000B3D7E70093F717006386070AF3270030E2
:1028A0009396E702B705020063DA060883378505C9
:1028B000B7060A006384D7066392B7080337850614
:1028C000F327303473903714833705067390171449
:1028D000F327203473902714F32750107390173484
:1028E000931747009356370093F6061093F70702A5
:1028F000B3E7D7001377D7EDB7160000B3E7E700CB
:1029000013870680B3E7E7007390073083308100B8
:102910001301010117E3FFFF6700C38C9307D00089
:10292000630AF70093075000631AF70073D020344E
:102930006FF0DFF8735026346FF05FF893050700EF
:10294000EFF01FF0EFF0DFEF13064600130705006E
:102950007310163483378508930680000335050508
:1029600063E2F61C976600009386067C9397270027
:10297000B387D70083A70700130101FE233C110092
:10298000B387D70067800700930540002334E10038
:10299000EFF05FA70337810013050000833081014A
:1029A0002338A7041301010267800000B717000055
:1029B000B307F100B7F6FFFFB3F7D70083B607FD03
:1029C0009307000223B0A600F3B74734930700082B
:1029D000F3A747306FF05FFC97A7000083B7076944
:1029E0001375F50F638407082334E100EF0090208E
:1029F000033781006FF05FFA97A7000083B707677E
:102A0000639E070A97A7000083B7C766639207080B
:102A100097A7000083B78766639A070A97A7000005
:102A200083B7C766639A070C97A7000083B707634D
:102A3000E38407F62334E100EF00006903378100E7
:102A40006FF0DFF573754134833081011375250014
:102A50002338A704130101026780000093051000CA
:102A60006FF0DFF2930520006FF05FF297A7000090
:102A700083B74760638607022334E100EF00D02F5D
:102A8000033781006FF05FF113050000EFF0DFD630
:102A90002334E100EF005030033781006FF01FF066
:102AA00097A7000083B7875D638A07022334E1009C
:102AB000EF009045033781006FF01FEE2334E100F3
:102AC000EF001015033781006FF05FED2334E10054
:102AD000EF00D047033781006FF05FEC97A700004D
:102AE00083B7C75A638207022334E100EF00D0782E
:102AF000033781006FF05FEA2334E100EF00D07A02
:102B0000033781006FF09FE997A7000083B707554F
:102B1000E38407E82334E100EF00006F033781000E
:102B20006FF09FE7130580FA2338A7046780000041
:102B3000B7170000B307F10037F7FFFFB3F7E7005F
:102B400083B607FC03B707FD1306F0FF23A00600BA
:102B50002330C7007350403417A700000337874D58
:102B6000630807041307F70313576700630E070092
:102B700083B507FF1317370093070000639C050216
:102B800093878700E31EF7FEB717000037F7FFFFB4
:102B9000B307F100B3F7E70003B787FD83B787FEFC
:102BA000930610002320D7006384070023A00700AA
:102BB00067800000B386F50023B0C60093878700C6
:102BC000E304F7FCB386F50023B0C60093878700C3
:102BD000E312F7FE6FF05FFBF32710301397D70275
:102BE000635607009307F0FF73906710F3271030C8
:102BF0001397B702635607009307F0FF739067308F
:102C000073504430F32710301397D70263540700F2
:102C100073500018F32710301397D702635E070430
:102C2000130101FF233411001307202273103730E2
:102C3000B7B700009387971073902730F326303092
:102C40006394E60873272030631AF7049307F001B2
:102C50001307F0FF9702000093824201F392523073
:102C60007310073B7390073A7390523083308100A2
:102C700013010101678000009307F0011307F0FFC3
:102C80009702000093824201F39252307310073B87
:102C90007390073A739052306780000017750000F8
:102CA0001305C593977600009386C6DE13060004CD
:102CB00097750000938505DAEFF01FA63705010030
:102CC0001305F5FFEFF05FB31775000013050591CD
:102CD00097760000938606D61306F00397750000DA
:102CE000938545D7EFF05FA3370501001305F5FF86
:102CF000EFF09FB0B7170000732740F13307E540AE
:102D0000B307F100B7F6FFFF1317C700130707FC5F
:102D100033F5D7003305E5002330050023340500E3
:102D200023380500233C0500233005022334050227
:102D30002338050267800000130101FE178500009B
:102D400013054534233C110023388100EF00806EC9
:102D50001785000013050533EF00500617850000A6
:102D600013054532EF00502117850000130585310A
:102D7000EF001057178500001305C530EF00C05253
:102D800017750000130505D3EFF01F99EFF0DFE48E
:102D9000B7170000B7F6FFFFB307F100732440F147
:102DA00033048040B3F7D7001314C400338787007F
:102DB000233007FC233407FC233807FC233C07FCA3
:102DC000233007FE233407FE233807FE1785000053
:102DD0001305452B2334F100EF00506817850000E0
:102DE0001305452AEFF04FAB178500001305852921
:102DF000EFF00FB3178500001305C528EFF08FBC67
:102E00001785000013050528EFF00FC41785000093
:102E100013054527EFF00FD317A700000337871ED0
:102E200097A6000083B6061F1347F7FF3377D70036
:102E300013771700630C0700833781001307100016
:102E4000B387870083B707FC23A0E70017A700001C
:102E50000337471E6306070297A7000083B7071EC4
:102E600013172700930610003307F70013074700D6
:102E70009387470023A0D70093874700E39CE7FE92
:102E8000EFF01FCB97A7000083B7471C0334010165
:102E90003707E0FF83308101B3F7E70017A7000091
:102EA0002336F71A178500001305C51D130101020B
:102EB0006FD0CFD1130101FE233C11002334B100A8
:102EC000EFF09FD1EFF0DFC6033581008330810141
:102ED000130101026FD04FBE9307F0011307F0FFFB
:102EE0009702000093824201F39252307310073B25
:102EF0007390073A73905230678000009306050084
:102F000073270030B7E7FFFF9387F7773377F70032
:102F1000B7170000138507803367A70073100730C9
:102F200037F7FFFFB307F100B3F7E700138707DCBC
:102F30007310073423B007DC739016341385050033
:102F40009305060073002030130101FF13070500ED
:102F50002334110013850500F327003093F7F7F7AA
:102F600073900730B7170000B307F100B7F6FFFF03
:102F7000B3F7D700938707DC7390073493050600F7
:102F8000E700070083A70500638807009307100088
:102F900017A700002334F70C678000009777000024
:102FA00083B74706638C0704130101FF17770000FE
:102FB000233A07042334110093D687031307100024
:102FC0006396E6061397870013578703630A070083
:102FD0006318D7028330810013010101678000006C
:102FE0008330810093F7F70F9B87170017A7000026
:102FF000232CF706130101016780000067800000A1
:10300000176500001305855D97760000938606B16D
:103010001306700297750000938545ACEFF0CFEF73
:10302000370501001305F5FFEFF00FFD17650000F0
:103030001305C55A977600009386C6A81306F001BB
:1030400097750000938585A9EFF00FED3705010016
:103050001305F5FFEFF04FFA23800500A38005006C
:1030600023810500A381050067800000130101FE94
:1030700023388100130405000335850023349100B3
:1030800093840500976500009385C57C233C11005F
:10309000EF50D03A63100502033504019775000024
:1030A000938545A8EF5090396316050093071000EB
:1030B00023A0F400833081010334010183348100B3
:1030C0001301010267800000130101FE2338810013
:1030D000233C1100233491001304F0FF97A7000054
:1030E00083A747F8E39C07FE97A7000083A787F70D
:1030F00017A70000232887F60F00F00FE39007FEC4
:10310000EFF0DFE997A4000083A404F663CA040289
:1031100097A7000023AA87F417740000130484EE15
:103120008337840063880700EFF05FE7833784000C
:10313000E39C07FE93071000939787032334F40062
:103140000F00F00F833081010334010197A70000C5
:1031500023AA07F01B85F4FF8334810013010102C9
:1031600067800000130101FE23349100233C11000D
:1031700023388100930405001307F0FF97A7000090
:1031800083A747EEE39C07FE97A7000083A787ED80
:1031900097A6000023A8E6EC0F00F00FE39007FECF
:1031A00017740000130404E6833784006388070063
:1031B000EFF0DFDE83378400E39C07FE23349400C6
:1031C00003370400E30E07FE93178700B3E7E70019
:1031D00093D7870363860700EFF05FDC6FF05FFE35
:1031E0009777000023B007E20F00F00F83308101D2
:1031F0000334010197A7000023A607E6833481006A
:103200001301010267800000130101FE23349100C5
:10321000233C110023388100930405001307F0FFBD
:1032200097A7000083A707E4E39C07FE97A7000089
:1032300083A747E397A6000023A6E6E20F00F00F5E
:10324000E39007FE177400001304C4DB8337840087
:1032500063880700EFF09FD483378400E39C07FE68
:103260009307101093970703B3E7F4002334F40097
:103270000F00F00F833081010334010197A7000094
:1032800023A207DE8334810013010102678000005E
:103290009307100017770000233607D61777000032
:1032A0002336F7D66FF01FFF130101FC170600004D
:1032B0001306C6DA97060000938686DB1707000020
:1032C000130787CC93058100233C110223300102B0
:1032D0002334C1002338D100233CE10023342102F0
:1032E000EFE01FA383308103130101046780000016
:1032F00083A70500638C070083B7850063880700F8
:1033000017A70000033787D6630407006780000013
:103310001307100023A4E70097A6000023B8F6D4F3
:1033200023A6E7006780000013850500130600014F
:10333000930500006F505008130101FE23349100E3
:1033400083348500233881002330210113040500D4
:103350001389050013850400976500009385854F48
:10336000233C1100EF50900D631C05000335040150
:10337000976500009385057CEF50500C63080502AB
:10338000138504009765000093854537EF50100BB7
:10339000630E05028330810103340101833481000F
:1033A00003390100130101026780000083308101AD
:1033B00003340101930710002320F90083348100B6
:1033C0000339010013010102678000008337040004
:1033D000833504010334010183308101833481008A
:1033E00003B5070013068900033901001301010228
:1033F0006FE09FA817A70000033747C78327070080
:10340000E3CE07FE1B0505002320A7006780000010
:1034100097A7000083B787C583A747009B8707004E
:103420001B85070063C40700678000001305F0FFD9
:1034300067800000130101FB93078100170600005D
:103440001306C6EE97060000938646EF17070000A6
:10345000130747EA9305810123341104233801023D
:10346000233CC1002330D1022334E102233CF1028A
:10347000EFE01F8A8330810413010105678000009B
:1034800083A70500638C070083B785006388070066
:1034900017A70000033707BE63040700678000001A
:1034A00017A700002338F7BC6780000013850500CC
:1034B00013060001930500006F500070130101FE18
:1034C0002334910083348500233881002330210187
:1034D0001304050013890500138504009765000097
:1034E00093854537233C1100EF504075631C050060
:1034F00003350401976500009385C564EF5000749F
:103500006308050213850400976500009385051F75
:10351000EF50C072630E0502833081010334010154
:103520008334810003390100130101026780000028
:103530008330810103340101930710002320F90037
:103540008334810003390100130101026780000008
:103550008337040083350401033401018330810182
:103560008334810003B50700130689000339010085
:10357000130101026FE05F9017A70000033787AFC8
:103580008347C70293F70701E39C07FE1B0505006D
:103590002328A7026780000017A70000033787AD24
:1035A0001305F0FF8347C70293F7270063960700D0
:1035B000032507031B05050067800000130101FBBD
:1035C0009307810017060000130686EE9706000099
:1035D000938606EF170700001307C7EA93058101DA
:1035E0002334110423380102233CC1002330D102CB
:1035F0002334E102233CF102EFE08FF183308104B8
:10360000130101056780000083A70500638C070094
:1036100083B785006388070017A70000033707A654
:1036200063040700678000001307300097A60000BE
:1036300023B6F6A42386E700678000001385050003
:1036400013060001930500006F500057130101FE9F
:1036500023349100833485002338810023302101F5
:103660001304050013890500138504009765000005
:103670009385451E233C1100EF50405C631C050000
:1036800003350401976500009385C54CEF50005B3E
:1036900063080502138504009765000093850506FD
:1036A000EF50C059630E05028330810103340101DC
:1036B0008334810003390100130101026780000097
:1036C0008330810103340101930710002320F900A6
:1036D0008334810003390100130101026780000077
:1036E00083370400833504010334010183308101F1
:1036F0008334810003B507001306890003390100F4
:10370000130101026FE04FF79307A00097A6000096
:103710009386C696630EF50003B7060083478700BD
:1037200093F78700E39C07FE2302A7006780000051
:1037300003B706008347870093F78700E39C07FEE3
:103740009307D0002302F7006FF01FFD17A70000BA
:103750000337C7928347870093F71700638A0700F0
:10376000034507001B1585011B5585416780000037
:103770001305F0FF67800000130101FB9307810030
:10378000170600001306C6EB97060000938646EC6A
:1037900017070000130787E79305810123341104FD
:1037A00023380102233CC1002330D1022334E1023B
:1037B000233CF102EFE0CFD58330810413010105F2
:1037C0006780000083A70500638E070083B685002D
:1037D000638A060097A700009387478B03B707000B
:1037E000630407006780000003A685016310060CD0
:1037F000178600000326C66D03A7C501630A0700EC
:103800001B1747003B57E60237050100636EA70010
:103810001316060237874E1B1307571B1356060253
:103820003306E6021357060303E6050183A54501A7
:1038300013051000B306D6003B16B50023B0D70021
:10384000B386C6002380060003B507009306300048
:10385000BB96B6003305D500130800F82300050118
:1038600003B507009B588700130830002300E500CC
:1038700003B50700130720003B17B7003306C50048
:103880002300160103B60700130570FCB306D6002B
:103890002380060183B707009796000023A4B67E15
:1038A000B387E7002380A700678000001787000028
:1038B0002320C7626FF05FF4130101FF1385050039
:1038C000130600029305000023341100EF50C02EB0
:1038D00083308100B797000093870760232EF5009F
:1038E0001301010167800000130101FE23388100EC
:1038F0000334850023349100233021019304050013
:10390000138905001305040097650000938585F46D
:10391000233C1100EF5080326302050A97650000D6
:103920009385C5DD13050400EF504031630405069F
:10393000976500009385852413050400EF5000303F
:103940006306050C97650000938545241305040064
:10395000EF50C02E6300050E976500009385052487
:1039600013050400EF50802D6308050813050400BB
:103970009765000093858523EF50402C6312050660
:103980001385040093050000EFE08FE1232CA900CC
:103990006F00000583B704000334010183B50401FF
:1039A000833081018334810003B507001306890049
:1039B00003390100130101026FE00FCC976500008D
:1039C0009385451A13850400EFE00FE29307F0FF9B
:1039D000130405006304F508930710002320F90081
:1039E00083308101033401018334810003390100F4
:1039F0001301010267800000138504009305000095
:103A0000EFE00FDA232EA9006FF09FFD138504006D
:103A100093050000EFE0CFD883308101033401012A
:103A2000232AA90083348100033901001301010214
:103A3000678000001385040093050000EFE04FD677
:103A400083308101033401012328A90083348100DC
:103A5000033901001301010267800000976500002F
:103A60009385451113850400EFE00FD8E31685F622
:103A700003B484006FF09FEA9797000083A78760E4
:103A80009796000083B68660130750003B17F70037
:103A90003387E6008347070093F70702E38C07FEAE
:103AA0002380A600678000009796000083A6865DAD
:103AB000179700000337875D93075000BB97D70027
:103AC000B307F70083C7070093F717006386070063
:103AD00003450700678000001305F0FF67800000C2
:103AE000130101FA9307810017060000130606DD93
:103AF00097060000938686DF170700001307C7CCE0
:103B000093058102233C1104233001042334C102B4
:103B10002338D102233CE1022334F104EFE04F9F2C
:103B200083308105130101066780000083A705002B
:103B3000638C070083B78500638807001797000030
:103B4000033747556304070067800000179700009C
:103B50002332F75467800000138505001306000127
:103B6000930500006F504005130101FE23349100BE
:103B7000833485002338810023302101130405009C
:103B8000138905001385040097650000938585CC93
:103B9000233C1100EF50800A631C0500033504012B
:103BA0009765000093858501EF5040096308050281
:103BB0001385040097650000938545B4EF50000815
:103BC000630E0502833081010334010183348100D7
:103BD0000339010013010102678000008330810175
:103BE00003340101930710002320F900833481007E
:103BF00003390100130101026780000083370400CC
:103C00008335040103340101833081018334810051
:103C100003B50700130689000339010013010102EF
:103C20006FE08FA59797000083B7C74663860702AA
:103C3000631A0500375700001307575523A0E70004
:103C400067800000373700001B1505011307373365
:103C50003365E50023A0A70067800000130101FB86
:103C60009307810017060000130646EF9706000031
:103C70009386C6EF17070000130787EB93058101B2
:103C80002334110423380102233CC1002330D10224
:103C90002334E102233CF102EFE08F87833081047B
:103CA00013010105678000006FE01FAB138305005F
:103CB00013080600F32500307327303493073000D3
:103CC000B378F700639AF8029307480073901734AB
:103CD00097580000938888479377C707B3871701E1
:103CE00083A70700938605001306080093050300C9
:103CF000B3871701678007006308070013060700F2
:103D0000130508006FF05FFAB7050A00F3A6053047
:103D100003670600739006303376F700938506003C
:103D2000E304F6FA6FF09FFD130506009385060085
:103D3000130607006FE05FA29357C7003728000003
:103D400093F8870F13080880B3081501135EF70076
:103D500033F806011303F07F930E060083B50800C5
:103D6000137EFE011B56470163660307F3286010AC
:103D700037180000130838B0630206196374C806C8
:103D800037180000130818C06300061B6364C82EB0
:103D900037180000130848B06308062B37180000D6
:103DA000130808C06318060F93F818006384080E00
:103DB000732800B093F77700975800009388084164
:103DC00093972700B387170183A70700B3871701CD
:103DD0006780070037180000130838B06304061323
:103DE0006366C80813083000630806236366C804C6
:103DF00013081000630A060D13082000631C06094F
:103E000013D8D600137838006306080893F77700B4
:103E1000175300001303833D93972700B387670070
:103E200083A80700131F82039B070200B388680062
:103E30001358DF0367800800130830326304060755
:103E400013084032631806057328403293F7770051
:103E5000975800009388883B93972700B3871701F2
:103E600083A70700B3871701678007003718000092
:103E7000130818C0630E060B636AC82237180000C7
:103E8000130848B06306061D37180000130808C061
:103E9000E30006F3130607009385060013850E0062
:103EA0006FF09FE07328303293F777009758000047
:103EB0009388C83793972700B387170183A7070014
:103EC000B38717016780070013D8D600137838002E
:103ED000E30208FC93F7770017530000130303373E
:103EE00093972700B387670083A807001378F20130
:103EF00093070200B38868006780080093F8880081
:103F0000E38A08F8732830B093F7770097580000D9
:103F10009388C83593972700B387170183A70700B5
:103F2000B38717016780070093F82800E38408F639
:103F300093F7770017580000130848359397270028
:103F4000B387070183A707009798000083B8880FFD
:103F5000B387070103B80800678007009345FEFF99
:103F6000B3F50501630A0E04930740326302F618A5
:103F70009307403263EAC70693073000630AF61AD4
:103F80009307300063EAC71693071000630CF6121C
:103F90009308200093070200E31E16EF9395550047
:103FA00093F7F701B3E7B70093F7F70F3302F00089
:103FB000B7670000F3A70730135747001377870F41
:103FC0003307E5002330070167800000B3650E0169
:103FD0006FF05FF993C5F5FFB3F505016FF09FF83A
:103FE000B3E505016FF01FF8B7170000938747B0DE
:103FF0006306F61263FAC710B7170000938707C06D
:10400000630EF60AB7170000938727C0E314F6E89B
:10401000739025B06FF05FFA13D8D600137838008C
:10402000E30A08E693F7770097580000938808287A
:1040300093972700B387170183A707001378F20F20
:10404000B38717016780070093F80801E38408E449
:10405000732840B093F7770097580000938808279B
:1040600093972700B387170183A70700B38717012A
:104070006780070037180000130828C0E31C06E11A
:1040800093F84800E38808E0732820B093F777009E
:10409000975800009388882593972700B3871701C6
:1040A00083A70700B3871701678007003718000050
:1040B000130828C0E30A06FD6FF0DFDD739005B03A
:1040C0006FF09FEF9307020093F5F50193F7070E4A
:1040D000B3E7B7003302F000B7670000F3A707307B
:1040E0006FF09FED93050E006FF01FE893050E0033
:1040F000739045326FF05FEC93073032E31CF6D8D3
:10410000739035326FF05FEBB7170000938737B0CD
:10411000E312F6D8739035B06FF01FEA739045B094
:104120006FF09FE993050E006FF09FE593050E0079
:1041300093F5F50F3302B000B7670000F3A707301F
:104140006FF09FE793050E006FF01FE493050E00DC
:104150006FF01FE293D7D60093F737006380070410
:1041600037780000B37807019377F20F639A08035A
:104170001B988700BB07F80013820700935797012D
:10418000175800001308881893F7C707B38707016B
:1041900083A70700B3870701678007006FF0DFB8C8
:1041A0001358C7001373780093084000E3E868FED3
:1041B0001318D300B3E707016FF01FFC130101FED2
:1041C000B7080006233C1100B37817011308070055
:1041D000638C0806370E00026392C80793561701D6
:1041E00093F6860F1357C700B306D5001377870FD2
:1041F00083B506103307E5002330A100033507100F
:1042000093970702B3C5B70023340101EF101037AD
:104210000338810003330100135848001378880FD6
:10422000B307030123B0A710B7670000F3A7073057
:104230008330810113010102678000008330810116
:10424000130101026FF05FAE9356170193F6860FCC
:104250001357C700B306D5001377870F83A5061041
:104260003307E5002330A10003250710B3C5B700CD
:1042700023340101EF1000200338810003330100D3
:10428000B7670000135848001378880F33080301FC
:104290002320A810F3A70730833081011301010206
:1042A00067800000930700006FF05FF1B7070080A0
:1042B0006FF0DFF0130101FE37080006233C110008
:1042C00033780701930707006308080637030002E5
:1042D000631E6804935617011357C70093F6860FA1
:1042E0001377870FB306D5003307E5002330A1000D
:1042F00083B50610033507102334F100EF10106B5F
:10430000833781008338010093D7470093F7870FE5
:10431000B388F80023B0A810B7670000F3A70730F0
:104320008330810113010102678000008330810125
:10433000130101026FF05F9F935617011357C700D7
:1043400093F6860F1377870FB306D5003307E50082
:104350002330A10083A50610032507102334F100A4
:10436000EF108050833781008338010093D74700D6
:1043700093F7870FB388F80023A0A810B767000051
:10438000F3A7073083308101130101026780000029
:10439000130101FE37080006233C110033780701A2
:1043A000930707006308080637030002631E6804CA
:1043B000935617011357C70093F6860F1377870F8D
:1043C000B306D5003307E5002330A10083B50610FE
:1043D000033507102334F100EF10901C8337810060
:1043E0008338010093D7470093F7870FB388F8000D
:1043F00023B0A810B7670000F3A70730833081010E
:104400001301010267800000833081011301010262
:104410006FF09F91935617011357C70093F6860FBD
:104420001377870FB306D5003307E5002330A100CB
:1044300083A50610032507102334F100EF100006B2
:10444000833781008338010093D7470093F7870FA4
:10445000B388F80023A0A810B7670000F3A70730BF
:1044600083308101130101026780000093574701E7
:1044700093F7F7016390070C130101FE370800065C
:10448000233C1100337807019307070063000806F7
:1044900037030002631668041357C7001377870FAA
:1044A0003307E5002330A100033507102334F10062
:1044B000EF10506A833781008338010093D747009B
:1044C00093F7870FB388F80023B0A810B7670000F0
:1044D000F3A70730833081011301010267800000D8
:1044E00083308101130101026FF01F841357C7004D
:1044F0001377870F3307E5002330A100032507104A
:104500002334F100EF10C05183378100833801005C
:1045100093D7470093F7870FB388F80023A0A8101C
:10452000B7670000F3A70730833081011301010250
:10453000678000006FF04FFF9357C70093F8770034
:1045400013082000634C180D370800063378070164
:1045500063060806370300026312680C135617013E
:1045600093F7870F1376860FB307F5003306C50060
:1045700083B60710833706101BD6184093D5F60371
:1045800093D7F703B3C717013376B600B3C7C70095
:1045900013574700939616001377870F93D616008C
:1045A0009397F703B3E7D7003305E5002330F51001
:1045B000B7670000F3A707306780000013561701A4
:1045C00093F7870F1376860FB307F5003306C50000
:1045D00083A60710832706101BD618409BD5F6012B
:1045E0009BD7F701B3C717013376B600B3C7C7002F
:1045F000135747009396160293D616021377870F28
:104600009B97F701B3E7D7003307E5002320F710A6
:10461000B7670000F3A70730678000006FF0CFF0A6
:104620001358C7009377680063940718130101FDBE
:10463000B708000623341102B378170113030500ED
:1046400093070700137E78006380080AB70E000204
:104650006398D811135717011378880F1377870FB2
:10466000330805013307E5008336081003370710C8
:10467000138506009305070063060E009385060068
:1046800013050700233861002334F1002330D100E3
:10469000233CE100EF10D0258336010083378100F1
:1046A0000333010163100502033781011346F7FF4D
:1046B0009355460393F5F57F639C050C1316C700CD
:1046C0006308060C93D7470093F7870FB307F300EF
:1046D00023B0D710B7670000F3A7073083308102FB
:1046E0001301010367800000135717011378880F27
:1046F0001377870F330805013307E5008326081079
:1047000003270710138506009305070063060E00B4
:104710009385060013050700233861002334F10058
:104720002330D100233CE100EF1040088336010024
:104730008337810003330101630A050293D74700E1
:1047400093F7870FB307F30023A0D710B7670000D4
:10475000F3A7073083308102130101036780000053
:1047600083308102130101036FF00FDC03378101F5
:104770001346F7FF9355760193F5F50F6396050001
:1047800013169702E31C06FA930607006FF01FFB4F
:1047900093D7470093F7870FB307F30093060700FB
:1047A00023B0D710B7670000F3A707306FF01FF3EF
:1047B0006FF08FD7130101FE3708000693584701A9
:1047C000233C1100337807019307070093F8F801A1
:1047D000631C0800130810006382080783308101FE
:1047E000130101026FF04FD4370E0002E318C8FF27
:1047F000E39608FE1357C7001377870F3307E500CA
:104800002330A100032507102334F100EF10C0333B
:10481000833781000333010093D7470093F7870F55
:104820003303F3002330A310B7670000F3A707306A
:104830008330810113010102678000001357C70014
:104840001377870F3307E5002330A10003350710E6
:104850002334F100EF105047833781000333010008
:1048600093D7470093F7870F3303F3002320A31058
:10487000B7670000F3A707308330810113010102FD
:1048800067800000131857026348080E1358C700CA
:10489000130101FE1378880F93584701330805016F
:1048A000233C110093F8F801130E20000338080090
:1048B000930707006380C811636C1E056380080CB2
:1048C0002334A1002330E10013150802135505021B
:1048D000EF305030833701000333810013D7470096
:1048E0001377870F93D697011307071093F63600B7
:1048F0003307E300638C06042330A700B76700008A
:10490000F3A70730833081011301010267800000A3
:10491000130E3000639EC8052334A1001305080060
:104920002330E100EF30102B833701000333810087
:1049300013D747001377870F93D6970113070710F4
:1049400093F636003307E300E39806FA2330E100DC
:10495000EF10903703370100B76700002320A7004E
:10496000F3A7073083308101130101026780000043
:1049700083308101130101026FF00FBB131708028E
:104980002334A1002330F100E35007F43B0500413C
:104990001315050213550502EF30D02383370100AC
:1049A000033381001307F0FF1317F7033345E500C6
:1049B0006FF0DFF22334A1002330E100634C0800E4
:1049C00013050800EF301021833701000333810005
:1049D0006FF0DFF033050041EF30D01F8337010067
:1049E000033381006FF01FFC135847019377C80110
:1049F0006396071C130101FDB7080006233411025A
:104A0000B37817011303050093070700638A080AA8
:104A1000370E00026390C80B1357C7001377870F38
:104A20003307E500033507109376F801233861005A
:104A30002334F1002330D100233C01019B55D240A7
:104A40006344050C13061000EF109032833601000A
:104A50001307100083378100033301016382E612DC
:104A6000033881011378E801630A080E1307200058
:104A70006394E6121307F0FF13571700130607009D
:104A8000930605006376A6001362020193060700F1
:104A9000376700007327073093D7470083308102C0
:104AA00093F7870FB307F30023B0D7001301010377
:104AB0006780000083308102130101036FF0CFA6ED
:104AC0001357C7001377870F3307E5002330A10082
:104AD00003250710233801012334F100EF10C0062D
:104AE0000338010103330100833781009376F80115
:104AF000233861002334F1002330D100233C01012D
:104B00009B55D240E35005F49308F0FF1397F80348
:104B1000130610003345E500EF10902583360100A1
:104B20001306100083378100033301019308F0FF5F
:104B30006380C604033881011378E801630808061E
:104B4000130620001397F803638CC604138708002C
:104B500013060000930600006FF0DFF237070080B5
:104B60001347F7FF130607009B0605006FF09FF140
:104B700013D7080213060000930600006FF09FF0A1
:104B80001307F0FF135707029316050213060700D9
:104B900093D606026FF01FEF930605006FF05FEFEC
:104BA00013060700B306A0406FF0DFED1317F60100
:104BB00013060700BB06A0406FF0DFEC6FF0CF9646
:104BC0001358C700137E78009307200063CEC715E3
:104BD000130101FCB7080006233C1102B37817014A
:104BE0001303050093070700638C0800B70E00024B
:104BF000638CD80983308103130101046FF0CF92D5
:104C0000135717011378880F1377870F330805019F
:104C10003307E5001306100083260810032707104A
:104C20006304CE04233CA10093050700138506000E
:104C30002338F1002334C1012334E1022330D102AF
:104C4000EF009024033E810083370101033381018B
:104C5000631A0E0A134615001376F60F8336010207
:104C6000033781026300060A9305070013850600D7
:104C7000233861002334F100EF00102B83378100CB
:104C8000033301016F000008135717011378880FD1
:104C90001377870F330805013307E500130610006B
:104CA00083360810833507106302CE04233CA1002D
:104CB000138506002338F1002334C1012334B102E7
:104CC0002330D102EF100031033E81008337010110
:104CD0000333810163180E02134715001377F70F92
:104CE0008336010283358102630E070013850600B7
:104CF000233861002334F100EF10403883378100FE
:104D000003330101376700007327073093D747004B
:104D10008330810393F7870F3303F3002330A3001D
:104D200013010104678000006FF00F809357470163
:104D300093F7F70193080700130E0500938E050003
:104D4000130F0600938F0600639E070E130101FEEA
:104D500037080006233C11003378070113030500D0
:104D600093070700631808021358C700137E880FC3
:104D7000330EC5019378780003280E10638008066F
:104D8000130E1000638EC8098330810113010102E4
:104D90006FE09FF9B7020002631458061358C7006A
:104DA000137E880F330EC5019378780003380E10F8
:104DB00063860802130E1000E398C8FD130508006F
:104DC000233461002330E100EF10500A83370100E3
:104DD00003338100131805021358080237670000D7
:104DE0007327073093D747008330810193F7870FEC
:104DF0003303F30023300301130101026780000035
:104E0000833081011387080093860F0013060F007B
:104E100093850E0013050E00130101026FE0DFF011
:104E200013050800233461002330E100EF00905E99
:104E30001318050283370100033381001358080259
:104E40006FF0DFF96FE05FEEB7071000938777F040
:104E50001353C7009397C7009308F0009387F70791
:104E60001373830F9398C80133036500B377F7007A
:104E70009388380503330300638A17039308900768
:104E80009398980193883805639017031358470047
:104E90001378880F330E050123306E10B7670000BA
:104EA000F3A70730678000006FE01FE81358470042
:104EB0001378880F330E050123206E10B7670000AA
:104EC000F3A707306780000093D7D60093F7370029
:104ED0006386071637780000B37807019377F20FDF
:104EE000639008151B9887003B08F800130101FE2A
:104EF000233C110093070700130E0500130208005E
:104F000093583700135327003708000633780701FA
:104F100063040808B70E0002631ED80F13568701FA
:104F20009356C7001376860F93F6860F1357170113
:104F30003306C500B306D5001377870F3307EE009D
:104F400003B5061003360610833507101313F30359
:104F50009398F8033346C30033C5A80093060000B6
:104F60002334F1002330C101EF2080148337810006
:104F7000033E010093D7470093F7870FB307FE0066
:104F800023B0A710B7670000F3A707308330810173
:104F90001301010267800000135687019356C70072
:104FA0001376860F93F6860F135717013306C50045
:104FB000B306D5001377870F032806103307E500E3
:104FC00083A60610832507102330A1001B16F301CA
:104FD0001B95F801334606013345D50093060000C2
:104FE0002334F100EF10904E83378100033E01001F
:104FF00093D7470093F7870FB307FE0023A0A710AE
:10500000B7670000F3A70730833081011301010265
:105010006780000083308101130101026FE0DFD05F
:105020001358C700137378009308400063E86800C2
:105030001318D30033E807016FF05FEB6FE0DFCEAA
:1050400093D8D60093F8380013080700376E000095
:10505000638208069357C70093F7870FB307F500DD
:1050600003BF0700B77800009B574741B37817018B
:10507000B72E0000B387E7016380D805B73E000074
:10508000639AD80313F77700631007061358480094
:105090001378880F33030501B7050200F3A6053026
:1050A00003B70700739006302330E310732E0E30E1
:1050B000678000006FE05FC713F7370063160702D1
:1050C000135848001378880F33030501B705020011
:1050D000F3A6053003A70700739006302320E310E2
:1050E000732E0E3067800000739037346F00C00B52
:1050F00093D8D60093F83800130E05001308070064
:10510000638808069357C70093F7870FB307F50026
:1051100083BE0700935877009B57974193F8F80197
:10512000377300009B975700B3E71701B378670008
:1051300037230000B387D701638E6802373300003E
:105140006398680213F77700631C0704135818016B
:105150001378880F330E050103370E10B7050200D0
:10516000F3A6053023B0E700739006306780000097
:105170006FE09FBB13F73700631407021355180144
:105180001375850F3305AE0003270510B705020020
:10519000F3A6053023A0E700739006306780000077
:1051A000739037346F00001DB7050A009307300075
:1051B000F3A605300367060073900630B375F70059
:1051C00093880600130820006394F500130840003C
:1051D00073233034B77700009387F707B7250000B3
:1051E000B377F700938535006380B710B7350000BB
:1051F00093853500638AB704B76500009385350051
:105200006384B712B7350000938575006388B70EC5
:10521000B7250000938575006382B712B7150000AB
:10522000938535006386B712B75500009385350026
:10523000639AB7129308200093820800930F00002E
:10524000130F00006F004001930880009382080054
:10525000930F0000130F0000130101FFB30EC800ED
:1052600023340100B388680093070300130E810004
:105270003388674033080E01B70502009387170093
:10528000F3A6053083C3F7FF739006302300780040
:10529000E39017FF13574700833781001377870F79
:1052A00063900F02B397E701B3D7E7413307E500F7
:1052B0002330F70073901E34130101016780000052
:1052C00013070710930680003305E5006382D204BC
:1052D0002320F500B7670000F3A7073073901E3452
:1052E00013010101678000009308400093820800C9
:1052F000930F0000130F00026FF01FF69308800059
:1053000093820800930F1000130F00006FF0DFF47A
:105310002330F500B7670000F3A7073073901E3401
:105320001301010167800000930840009382080088
:10533000930F0000130F00006FF01FF2930840005E
:1053400093820800930F1000130F00006FF0DFF03E
:105350009308200093820800930F0000130F0003AE
:105360006FF09FEF73D022349305500093860800AE
:105370006FE09F9BB7050A0093073000F3A6053046
:105380000367060073900630B375F700130101FF41
:10539000138E0600130820006394F50013084000E4
:1053A0009355170193F5850FB305B50003B30500B9
:1053B000B77700009387F707B72800002334610010
:1053C000B377F700938838026382170BB738000071
:1053D0009388380263841705B738000093887802F1
:1053E000638A1703B728000093887802638C170735
:1053F000B715000093853502930820006382B70239
:1054000073D023349305700093060E00130101013D
:105410006FE09F9183B705102334F100930880005B
:105420003303060173283034130781009307070004
:10543000B388E8003308E84003C707003305F800E5
:10544000B7050200F3A605302300E500739006308F
:1054500093871700E39217FF7310133413010101B0
:105460006780000083A705102334F10093084000F3
:105470006FF01FFBB3C7A500139707021B050500BC
:105480009B850500973700009387C7B863460700E0
:10549000971700009387C73567800700B70780001C
:1054A0009387F7FF130101FC1B56750133F7A70023
:1054B0001BD87501B3F7B700233C11021376F60F22
:1054C0009308F00F9B0607009B8707003347B50042
:1054D0001378F80F1B0305009B850500630A16056A
:1054E000630C1803631A080863940706B3E6C60042
:1054F0009B86060063840604136282008330810366
:10550000B70700803375F700B707807F3B05F500CC
:10551000130101046780000063840714130503006E
:10552000EF20906F83308103130101046780000036
:10553000E39606FEE314C8FCE39207FE1362020141
:10554000833081033705C07F1301010467800000A9
:1055500013850700233CE1002338C1002334D10028
:10556000EF20402603378101033601018336810095
:105570001B08050093570502630A060A23388102B7
:10558000B7058000B3E6B600B3E7B7009B86060018
:105590009B8707001B54F7013B06064163FCF60C92
:1055A0009B05D6079B9686009B97870093960602DD
:1055B00093D60602138507002338B1002334D100A7
:1055C000233CF100EF10C05383368100131605020F
:1055D000135606023306D6028335010113560642DE
:1055E0001B0626001377E603631807021376C6FF2F
:1055F000836781011B171600131707021357070251
:10560000B307F70293960602B386F64063CA06060E
:1056100063840600136616001305040003340103B7
:1056200083308103130101046F20002E638A060278
:10563000138506002334E10023380101233CF100E7
:1056400023388102EF2000188337810103380101DC
:10565000033781001B060500935605026FF05FF2C9
:1056600083308103B70700803375F700130101040D
:10567000678000009B05E6079B9676006FF0DFF2DF
:105680001B06C6FF6FF05FF99307050093C6F7FF8F
:105690001B06050013D576011375F50F1B87050052
:1056A0006316050093969702639E060293C6F5FF64
:1056B00013D576011375F50F630E05001305100061
:1056C0006308C700B3E5F5009B95150013B51500F9
:1056D000678000003307C740133517001397950202
:1056E000E30807FE3707C07F3377F700B706807FF0
:1056F0006306D702B707C07FB3F7B7003707807FCD
:1057000013050000E396E7FC9395A502E38205FCF0
:105710001362020113050000678000009397A7023F
:10572000E39807FE6FF01FFD9307050013C7F7FF0F
:10573000135677011376F60F9B06050063160600D5
:1057400013979702631E070413C7F5FF13557701DC
:105750001375F50F1B860500631605001397950258
:105760006310070433C7B70013150702634E050023
:10577000130500006388C600B3B6C6009BD7F701C7
:1057800033C5F6006780000013050000E3DC06FE69
:10579000B3E7B7009B9717003335F0006780000030
:1057A00013620201130500006780000093070500E3
:1057B00093C6F7FF1B07050013D576011375F50F88
:1057C0001B8605006316050093969702639C0604EA
:1057D00093C6F5FF13D576011375F50F6316050013
:1057E0009396950263900604B3C6B700139506021C
:1057F000634E0500130500006308C7003337C70078
:105800009BD7F7013345F7006780000013050000C0
:10581000E35C07FEB3E7B7009B9717003335F00052
:10582000678000003707C07F3377F700B706807FB7
:105830006306D702B707C07FB3F7B7003707807F8B
:1058400013050000E392E7FC9395A502E38E05FAA9
:105850001362020113050000678000009397A702FE
:10586000E39807FE6FF01FFDB70780009387F7FFEF
:10587000130101FB9B56750133F6A7001BD8750178
:10588000B3F7B7002334110493F6F60F9308F00F23
:105890003347B5001B0606009B8707001378F80FF7
:1058A0001B0305009B850500638016056300180334
:1058B000639606086310060683308104B7070080EC
:1058C0003375F70013010105678000003366D600C9
:1058D0006386070213050300EF2010348330810430
:1058E0001301010567800000E31606FE930618F019
:1058F00063940600E39007FE33E60701631E060C7F
:1059000013620201833081043705C07F1301010552
:1059100067800000130506002334E1002338F100FE
:10592000233C0101EF10106A033881018337010124
:10593000033781009B06050013560542631C080AC5
:10594000E38C07F6138507002334E1002338D100E8
:10595000233CC10023308104233C9102EF10906668
:105960000336810183360101033781001B080500DE
:1059700093570542B70800401B1576009B97870098
:1059800037060080B3E7C700336515019397070218
:105990001315050293D70702135505023305F502C7
:1059A000930500021B54F701BB840601EF208055CC
:1059B0001B060500B70800406364160513050400C4
:1059C00003340104833081049B8514F883348103FC
:1059D000130101056F10507383308104B7070080F5
:1059E0003375F700B707807F3B05F500130101050C
:1059F0006780000023308104233C91026FF09FF701
:105A00001305040003340104833081049B8504F8EA
:105A1000833481031B161600130101056F10D06E2D
:105A2000130101FD9B577501931595022334110253
:105A300093F7F70F1307F00F93D595029B06050018
:105A4000638CE70263CC06006390070E6390050445
:105A5000833081021301010367800000B3E5F50084
:105A6000E38805FE13620201833081023705C07F9F
:105A70001301010367800000639C050AE3C406FE6E
:105A80008330810213010103678000001385050044
:105A900023308102EF1010539B07050093550542F8
:105AA000370700809B958500B3E5E5001B8717F855
:105AB00093F717001B571740138507002334B100D5
:105AC0002330F1001B04E707EF10800C8365810091
:105AD00013150502135505023386A502833701000D
